:020000040800F2
:1000000000500020110600084105000849050008BD
:1000100051050008590500086105000800000000AE
:10002000000000000000000000000000690500085A
:100030007505000800000000810500088D05000816
:100040005906000859060008590600085906000814
:100050005906000859060008590600085906000804
:1000600059060008590600085906000859060008F4
:1000700059060008590600085906000859060008E4
:1000800059060008590600085906000859060008D4
:1000900059060008590600085906000859060008C4
:1000A00059060008590600085906000859060008B4
:1000B00059060008590600085906000859060008A4
:1000C0005906000859060008590600085906000894
:1000D0005906000859060008590600085906000884
:1000E00059060008590600085906000800000000DB
:1000F0000000000000000000000000000000000000
:0C01000000000000000000005FF808F1A3
:10010C0010B5054C237833B9044B13B10448AFF345
:10011C0000800123237010BD5C0000200000000053
:10012C004427000808B5034B1BB103490348AFF340
:10013C00008008BD0000000060000020442700087B
:10014C00034613F8012B002AFBD1181A013870470B
:10015C00F0B589B006AF00F02DFC00F05DF800F0B2
:10016C00F9F800F09FF800F0CBF8254800F0AEFA53
:10017C000346002B06D164230A222249224801F0AF
:10018C00ABFC05E06423112220491F4801F0A4FCBC
:10019C001B4800F0D5FA1A4B9B7A1D46184B5B7A1C
:1001AC001E46174B1B7A1A46154BDB7A1946144B15
:1001BC001B7B1846124B5B7B1C46114BDB89049353
:1001CC00039402900191009233462A46104911483B
:1001DC0001F002FE0346FB71094800F05CFB0D4880
:1001EC00FFF7AEFF03469AB264230A49064801F0B2
:1001FC0073FC4FF4FA7000F03FFC00BFC8E700BF7F
:10020C00140100205C270008CC000020682700089F
:10021C007C2700083001002080B590B000AF07F1BA
:10022C00180328220021184601F0F6FD3B1D002280
:10023C001A605A609A60DA601A610123BB614FF44C
:10024C008033FB6100233B620123BB6202237B638F
:10025C004FF48033BB634FF4E013FB6307F11803D7
:10026C00184600F0D9FF0346002B01D000F0A0F88F
:10027C000F237B600223BB600023FB604FF4806381
:10028C003B6100237B613B1D0221184601F046FABD
:10029C000346002B01D000F08BF800BF4037BD4661
:1002AC0080BD000080B500AF124B134A1A60114B91
:1002BC00124A5A600F4B00229A600E4B0022DA60F1
:1002CC000C4B4FF480421A610A4B00225A61094BC5
:1002DC0000229A61074B0022DA61064B00221A6257
:1002EC00044800F055FE0346002B01D000F060F8E6
:1002FC0000BF80BD7800002000540040A0860100A3
:10030C0080B500AF114B124A1A60104B4FF4E1321A
:10031C005A600E4B00229A600C4B0022DA600B4B99
:10032C0000221A61094B0C225A61084B00229A6177
:10033C00064B0022DA61054801F07EFB0346002BD8
:10034C0001D000F035F800BF80BD00BFCC0000200C
:10035C000038014080B485B000AF144B9B69134A40
:10036C0043F020039361114B9B6903F02003FB6066
:10037C00FB680E4B9B690D4A43F0040393610B4BD6
:10038C009B6903F00403BB60BB68084B9B69074A7D
:10039C0043F008039361054B9B6903F008037B60F2
:1003AC007B6800BF1437BD4680BC7047001002400C
:1003BC0080B400AF72B600BF00BFFDE780B485B05B
:1003CC0000AF154B9B69144A43F001039361124B28
:1003DC009B6903F00103BB60BB680F4BDB690E4AE2
:1003EC0043F08053D3610C4BDB6903F080537B608B
:1003FC007B680A4B5B68FB60FB6823F0E063FB6087
:10040C00FB6843F00073FB60044AFB68536000BF59
:10041C001437BD4680BC70470010024000000140FC
:10042C0080B588B000AF786007F1100300221A6025
:10043C005A609A60DA607B681B68154A934223D134
:10044C00144B9B69134A43F008039361114B9B694E
:10045C0003F00803FB60FB68C0233B6112237B6144
:10046C000323FB6107F1100319460B4800F00CFC49
:10047C00084BDB69074A43F40013D361054BDB6976
:10048C0003F40013BB60BB6800BF2037BD4680BDC2
:10049C000054004000100240000C014080B588B0B0
:1004AC0000AF786007F1100300221A605A609A605E
:1004BC00DA607B681B681C4A934231D11B4B9B69E9
:1004CC001A4A43F480439361184B9B6903F48043AD
:1004DC00FB60FB68154B9B69144A43F00403936162
:1004EC00124B9B6903F00403BB60BB684FF40073B1
:1004FC003B6102237B610323FB6107F11003194667
:10050C000B4800F0C1FB4FF480633B6100237B611F
:10051C000023BB6107F110031946054800F0B4FB3A
:10052C0000BF2037BD4680BD00380140001002409E
:10053C000008014080B400AF00BFFDE780B400AFFD
:10054C0000BFFDE780B400AF00BFFDE780B400AF93
:10055C0000BFFDE780B400AF00BFFDE780B400AF83
:10056C0000BFBD4680BC704780B400AF00BFBD4625
:10057C0080BC704780B400AF00BFBD4680BC7047E4
:10058C0080B500AF00F05CFA00BF80BD80B586B0CE
:10059C0000AF7860144A154BD31A7B617B693B61C1
:1005AC00134B1B68002B02D1114B124A1A60104BD3
:1005BC001A687B6813443A699A4207D201F034FCFA
:1005CC0003460C221A604FF0FF3309E0084B1B68FE
:1005DC00FB60074B1A687B681344054A1360FB6881
:1005EC0018461837BD4680BD00500020000400009E
:1005FC00F80100204803002080B400AF00BFBD46C6
:10060C0080BC7047FFF7F8FF0B480C490C4A0023DD
:10061C0002E0D458C4500433C4188C42F9D3094AAC
:10062C00094C002301E013600432A242FBD301F019
:10063C0001FCFFF78DFD7047000000205C000020DE
:10064C00182800085C00002048030020FEE780B456
:10065C0083B000AF0346FB71FB791B09DBB21A4672
:10066C00920013445B00DAB2FB7903F00F03DBB2A8
:10067C001344DBB218460C37BD4680BC70470000F3
:10068C0080B485B000AF0346FB71FB790E4AA2FB28
:10069C000323DB08FB73FA790B4BA3FB0213D9087A
:1006AC000B469B000B445B00D31ABB73FB7B1B01FB
:1006BC005AB297F90E3013435BB2DBB218461437BB
:1006CC00BD4680BC704700BFCDCCCCCC80B584B0CF
:1006DC0000AF78600123FB737B6800221A707B6883
:1006EC009B69796801226820984703461A46FB7B70
:1006FC001340FB737B685B6979680122682098471B
:10070C0003461A46FB7B1340FB737B6800221A706E
:10071C007B6800225A707B689B697968022268208A
:10072C00984703461A46FB7B1340FB73FB7B012B5C
:10073C0001D1002300E0012318461037BD4680BDCF
:10074C0080B582B000AF78607B6800221A707B683D
:10075C009B6979680122682098470346012B40F079
:10076C0095807B685B697968072268209847034607
:10077C00012B40F089807B681B7803F07F03DBB290
:10078C001846FFF764FF03461A467B681A727B68AB
:10079C005B781846FFF75BFF03461A467B685A7274
:1007AC007B689B7803F00103D9B27A68537C61F3C0
:1007BC00000353747B685B7C03F00103DBB2002BFA
:1007CC0017D07B689B7803F01F03DBB21846FFF74A
:1007DC003EFF03461A467B689A727B689B785B11D6
:1007EC0003F00103D9B27A68537C61F3410353746B
:1007FC0019E07B689B785B1103F00103D9B27A682E
:10080C00537C61F3410353747B689B7A0B2B05D9A2
:10081C007A68537C43F00203537404E07A68537C87
:10082C006FF3410353747B68DB7803F00703DBB28F
:10083C001846FFF70CFF03461A467B68DA727B6892
:10084C001B7903F03F03DBB21846FFF700FF0346AA
:10085C001A467B681A737B685B7903F01F03DBB263
:10086C001846FFF7F4FE03461A467B685A737B68FA
:10087C009B791846FFF7EBFE034603F5FA639AB231
:10088C007B68DA81002302E0012300E00123184693
:10089C000837BD4680BD80B582B000AF78607B68FC
:1008AC0000221A707B681B7A1846FFF7E9FE034694
:1008BC001A467B685A707B685B7A1846FFF7E0FE35
:1008CC0003461A467B689A707B685B7C03F00103D5
:1008DC00DBB2002B1CD07B689B7A1846FFF7D0FE4E
:1008EC0003465AB27B685B7CC3F30003DBB29B010B
:1008FC005BB213435AB27B685B7CC3F34003DBB23D
:10090C005B015BB213435BB2DAB27B68DA7012E064
:10091C007B689B7A1846FFF7B3FE03465AB27B6896
:10092C005B7CC3F30003DBB29B015BB213435BB292
:10093C00DAB27B68DA707B68DB7A03F00703DBB230
:10094C001846FFF79DFE03461A467B681A717B68B2
:10095C001B7B03F03F03DBB21846FFF791FE034607
:10096C001A467B685A717B685B7B03F01F03DBB212
:10097C001846FFF785FE03461A467B689A717B681A
:10098C00DB89DBB21846FFF77BFE03463033DAB265
:10099C007B68DA717B689B697968012268209847CB
:1009AC000346012B01D1002300E001231846083730
:1009BC00BD4680BD80B500AF084B1B68074A43F0AD
:1009CC0010031360032000F02BF90F2000F008F83F
:1009DC00FFF7F4FC0023184680BD00BF0020024046
:1009EC0080B582B000AF7860124B1A68124B1B783E
:1009FC0019464FF47A73B3FBF1F3B2FBF3F31846D9
:100A0C0000F035F90346002B01D001230EE07B6882
:100A1C000F2B0AD8002279684FF0FF3000F00BF949
:100A2C00064A7B681360002300E001231846083750
:100A3C00BD4680BD000000200800002004000020FE
:100A4C0080B400AF054B1B781A46054B1B6813444A
:100A5C00034A136000BFBD4680BC704708000020ED
:100A6C00FC01002080B400AF024B1B681846BD4649
:100A7C0080BC7047FC01002080B584B000AF78606A
:100A8C00FFF7F0FFB8607B68FB60FB68B3F1FF3FDA
:100A9C0005D00A4B1B781A46FB681344FB6000BF59
:100AAC00FFF7E0FF0246BB68D31AFA689A42F7D800
:100ABC0000BF00BF1037BD4680BD00BF080000203E
:100ACC0080B485B000AF78607B6803F00703FB60EF
:100ADC000C4BDB68BB60BA684FF6FF031340BB607E
:100AEC00FB681A02BB68134343F0BF6343F4003343
:100AFC00BB60044ABB68D36000BF1437BD4680BCE2
:100B0C00704700BF00ED00E080B400AF044BDB6821
:100B1C001B0A03F007031846BD4680BC704700BF94
:100B2C0000ED00E080B483B000AF03463960FB7188
:100B3C0097F90730002B0ADB3B68DAB20C4997F9BE
:100B4C0007301201D2B20B4483F800230AE03B6851
:100B5C00DAB20849FB7903F00F03043B1201D2B25D
:100B6C000B441A7600BF0C37BD4680BC704700BFE3
:100B7C0000E100E000ED00E080B489B000AFF86067
:100B8C00B9607A60FB6803F00703FB61FB69C3F192
:100B9C000703042B28BF0423BB61FB690433062B1A
:100BAC0002D9FB69033B00E000237B614FF0FF326D
:100BBC00BB6902FA03F3DA43BB681A407B699A40BB
:100BCC004FF0FF317B6901FA03F3D9437B680B408B
:100BDC00134318462437BD4680BC704780B582B09D
:100BEC0000AF78607B68013BB3F1807F01D30123B8
:100BFC000FE00A4A7B68013B53600F214FF0FF3036
:100C0C00FFF790FF054B00229A60044B07221A60F5
:100C1C00002318460837BD4680BD00BF10E000E039
:100C2C0080B582B000AF78607868FFF749FF00BFED
:100C3C000837BD4680BD80B586B000AF0346B960AD
:100C4C007A60FB7300237B61FFF75EFF78617A6843
:100C5C00B9687869FFF790FF024697F90F30114693
:100C6C001846FFF75FFF00BF1837BD4680BD80B543
:100C7C0082B000AF78607868FFF7B0FF0346184683
:100C8C000837BD4680BD000080B48BB000AF7860E3
:100C9C00396000237B6200233B6269E101227B6A9D
:100CAC0002FA03F3FB613B681B68FA691340BB61F2
:100CBC00BA69FB699A4240F058813B685B689A4A72
:100CCC0093425ED0984A934275D8984A934258D032
:100CDC00964A93426FD8964A934252D0944A934282
:100CEC0069D8944A93424CD0924A934263D8924A20
:100CFC00934246D0904A93425DD8122B2AD8122B9D
:100D0C0059D801A252F823F08F0D0008690D000884
:100D1C007B0D0008BD0D0008C30D0008C30D0008B5
:100D2C00C30D0008C30D0008C30D0008C30D000857
:100D3C00C30D0008C30D0008C30D0008C30D000847
:100D4C00C30D0008C30D0008C30D0008710D000889
:100D5C00850D0008794A934213D02CE03B68DB6880
:100D6C003B6229E03B68DB6804333B6224E03B6870
:100D7C00DB6808333B621FE03B68DB680C333B628B
:100D8C001AE03B689B68002B02D104233B6213E002
:100D9C003B689B68012B05D108233B627B68FA6991
:100DAC001A6109E008233B627B68FA695A6103E027
:100DBC0000233B6200E000BFBB69FF2B01D87B68BE
:100DCC0001E07B6804337B61BB69FF2B02D87B6A33
:100DDC009B0002E07B6A083B9B003B617B691A68C5
:100DEC000F213B6901FA03F3DB431A40396A3B6973
:100DFC0001FA03F31A437B691A603B685B6803F0E2
:100E0C008053002B00F0B1804D4B9B694C4A43F052
:100E1C00010393614A4B9B6903F00103BB60BB6800
:100E2C00484A7B6A9B08023352F82330FB607B6A8A
:100E3C0003F003039B000F2202FA03F3DB43FA686F
:100E4C001340FB607B68404A934213D07B683F4A57
:100E5C0093420DD07B683E4A934207D07B683D4A53
:100E6C00934201D1032306E0042304E0022302E0B1
:100E7C00012300E000237A6A02F0030292009340FF
:100E8C00FA681343FB602F497B6A9B080233FA68AC
:100E9C0041F823203B685B6803F48013002B06D0D9
:100EAC002D4B9A682C49BB6913438B6006E02A4B87
:100EBC009A68BB69DB43284913408B603B685B68CD
:100ECC0003F40013002B06D0234BDA682249BB69CC
:100EDC001343CB6006E0204BDA68BB69DB431E4949
:100EEC001340CB603B685B6803F40033002B06D0E7
:100EFC00194B5A681849BB6913434B6006E0164BF3
:100F0C005A68BB69DB43144913404B603B685B6810
:100F1C0003F48033002B21D00F4B1A680E49BB69A8
:100F2C0013430B6021E000BF0000321000003110B1
:100F3C0000002210000021100000121000001110FF
:100F4C00001002400000014000080140000C01406C
:100F5C000010014000140140000401400B4B1A68C2
:100F6C00BB69DB43094913400B607B6A01337B622D
:100F7C003B681A687B6A22FA03F3002B7FF48EAE6F
:100F8C0000BF00BF2C37BD4680BC70470004014039
:100F9C0080B584B000AF78607B68002B01D1012351
:100FAC002BE17B6893F83D30DBB2002B06D17B68DC
:100FBC00002283F83C207868FFF732FA7B68242201
:100FCC0083F83D207B681B681A687B681B6822F0DD
:100FDC0001021A607B681B681A687B681B6842F404
:100FEC0000421A607B681B681A687B681B6822F4D5
:100FFC0000421A6000F0DAFCF8607B685B68814A9A
:10100C00934207D8FB68804A934294BF0123002384
:10101C00DBB206E0FB687D4A934294BF01230023B8
:10102C00DBB2002B01D00123E7E0FB68784AA2FB7E
:10103C0003239B0CBB607B681B685B6823F03F0140
:10104C007B681B68BA680A435A607B681B681B6A1A
:10105C0023F03F017B685B686A4A934202D8BB6805
:10106C00013309E0BB684FF4967202FB03F3694A43
:10107C00A2FB03239B0901337A6812680B431362AA
:10108C007B681B68DB6923F44F4222F0FF027B680C
:10109C005B685C498B4219D8FB68591E7B685B689E
:1010AC005B00B1FBF3F3591C40F6FC730B40002BB7
:1010BC000AD0FB68591E7B685B685B00B1FBF3F3DD
:1010CC000133C3F30B0351E004234FE07B689B68AF
:1010DC00002B11D1FB68581E7B6859680B465B00CE
:1010EC000B44B0FBF3F30133C3F30B03002B0CBF26
:1010FC0001230023DBB212E0FB68581E7B685968A1
:10110C000B469B000B4499000B44B0FBF3F30133EB
:10111C00C3F30B03002B0CBF01230023DBB2002B0A
:10112C0001D0012322E07B689B68002B0ED1FB6869
:10113C00581E7B6859680B465B000B44B0FBF3F3FD
:10114C000133C3F30B0343F400430FE0FB68581E59
:10115C007B6859680B469B000B4499000B44B0FB11
:10116C00F3F30133C3F30B0343F440437968096889
:10117C001343CB617B681B681B6823F0C0017B6841
:10118C00DA697B681B6A1A437B681B680A431A601E
:10119C007B681B689B6823F4034323F0FF037A6886
:1011AC0011697A68D26811437A6812680B439360AC
:1011BC007B681B68DB6823F0FF017B685A697B68DE
:1011CC009B691A437B681B680A43DA607B681B685F
:1011DC001A687B681B6842F001021A607B68002267
:1011EC001A647B68202283F83D207B6800221A63F6
:1011FC007B68002283F83E20002318461037BD463A
:10120C0080BD00BFA08601007F841E00FF083D004A
:10121C0083DE1B43D34D621080B586B000AF78607F
:10122C007B68002B01D1012372E27B681B6803F001
:10123C000103002B00F08780924B5B6803F00C03DA
:10124C00042B0CD08F4B5B6803F00C03082B12D1D2
:10125C008C4B5B6803F48033B3F5803F0BD1894B27
:10126C001B6803F40033002B6CD07B685B68002B8D
:10127C0068D101234CE27B685B68B3F5803F06D1F3
:10128C00804B1B687F4A43F4803313602EE07B68ED
:10129C005B68002B0CD17B4B1B687A4A23F48033A0
:1012AC001360784B1B68774A23F4802313601DE08E
:1012BC007B685B68B3F5A02F0CD1724B1B68714A2D
:1012CC0043F4802313606F4B1B686E4A43F48033E6
:1012DC0013600BE06B4B1B686A4A23F4803313607A
:1012EC00684B1B68674A23F4802313607B685B6838
:1012FC00002B13D0FFF7B6FB386108E0FFF7B2FB09
:10130C0002463B69D31A642B01D9032300E25D4BDF
:10131C001B6803F40033002BF0D014E0FFF7A2FBA2
:10132C00386108E0FFF79EFB02463B69D31A642B39
:10133C0001D90323ECE1534B1B6803F40033002B5E
:10134C00F0D100E000BF7B681B6803F00203002BA8
:10135C0063D04C4B5B6803F00C03002B0BD0494B58
:10136C005B6803F00C03082B1CD1464B5B6803F441
:10137C008033002B16D1434B1B6803F00203002B68
:10138C0005D07B681B69012B01D00123C0E13D4BCB
:10139C001B6823F0F8027B685B69DB003949134357
:1013AC000B603AE07B681B69002B20D0364B012286
:1013BC001A60FFF757FB386108E0FFF753FB024652
:1013CC003B69D31A022B01D90323A1E12D4B1B68D6
:1013DC0003F00203002BF0D02A4B1B6823F0F80219
:1013EC007B685B69DB00274913430B6015E0264BD8
:1013FC0000221A60FFF736FB386108E0FFF732FB7A
:10140C0002463B69D31A022B01D9032380E11D4B01
:10141C001B6803F00203002BF0D17B681B6803F000
:10142C000803002B3AD07B689B69002B19D0174B13
:10143C0001221A60FFF716FB386108E0FFF712FB78
:10144C0002463B69D31A022B01D9032360E10D4BF1
:10145C005B6A03F00203002BF0D0012000F0CEFAFF
:10146C001CE00A4B00221A60FFF7FCFA38610FE00F
:10147C00FFF7F8FA02463B69D31A022B08D903236B
:10148C0046E100BF0010024000004242800442428C
:10149C00924B5B6A03F00203002BE9D17B681B685B
:1014AC0003F00403002B00F0A6800023FB758B4B8C
:1014BC00DB6903F08053002B0DD1884BDB69874A25
:1014CC0043F08053D361854BDB6903F08053BB60E1
:1014DC00BB680123FB75824B1B6803F48073002BE4
:1014EC0018D17F4B1B687E4A43F480731360FFF75F
:1014FC00B9FA386108E0FFF7B5FA02463B69D31A2E
:10150C00642B01D9032303E1754B1B6803F480732F
:10151C00002BF0D07B68DB68012B06D16F4B1B6A6C
:10152C006E4A43F0010313622DE07B68DB68002BED
:10153C000CD16A4B1B6A694A23F001031362674B97
:10154C001B6A664A23F0040313621CE07B68DB68A9
:10155C00052B0CD1614B1B6A604A43F004031362E8
:10156C005E4B1B6A5D4A43F0010313620BE05B4B5D
:10157C001B6A5A4A23F001031362584B1B6A574AE1
:10158C0023F0040313627B68DB68002B15D0FFF794
:10159C0069FA38610AE0FFF765FA02463B69D31A2B
:1015AC0041F28832934201D90323B1E04B4B1B6AC1
:1015BC0003F00203002BEED014E0FFF753FA38616E
:1015CC000AE0FFF74FFA02463B69D31A41F2883220
:1015DC00934201D903239BE0404B1B6A03F00203A7
:1015EC00002BEED1FB7D012B05D13C4BDB693B4A3B
:1015FC0023F08053D3617B68DB69002B00F087807C
:10160C00364B5B6803F00C03082B61D07B68DB69FD
:10161C00022B46D1334B00221A60FFF723FA3861B4
:10162C0008E0FFF71FFA02463B69D31A022B01D9D7
:10163C0003236DE0294B1B6803F00073002BF0D1E2
:10164C007B681B6AB3F5803F08D1244B5B6823F49D
:10165C0000327B689B68214913434B601F4B5B68CE
:10166C0023F474127B68196A7B685B6A0B431B4911
:10167C0013434B601B4B01221A60FFF7F3F93861DF
:10168C0008E0FFF7EFF902463B69D31A022B01D9A8
:10169C0003233DE0114B1B6803F00073002BF0D0CB
:1016AC0035E0104B00221A60FFF7DCF9386108E0D6
:1016BC00FFF7D8F902463B69D31A022B01D9032351
:1016CC0026E0064B1B6803F00073002BF0D11EE0E4
:1016DC007B68DB69012B07D1012319E00010024064
:1016EC0000700040600042420B4B5B68FB60FB6883
:1016FC0003F480327B681B6A9A4206D1FB6803F4C0
:10170C0070127B685B6A9A4201D0012300E00023CF
:10171C0018461837BD4680BD0010024080B584B015
:10172C0000AF786039607B68002B01D10123D0E0D9
:10173C006A4B1B6803F007033A689A4210D9674B4F
:10174C001B6823F0070265493B6813430B60634B2E
:10175C001B6803F007033A689A4201D00123B8E0F2
:10176C007B681B6803F00203002B20D07B681B688E
:10177C0003F00403002B05D0594B5B68584A43F423
:10178C00E06353607B681B6803F00803002B05D0F3
:10179C00534B5B68524A43F460535360504B5B6845
:1017AC0023F0F0027B689B684D4913434B607B68C8
:1017BC001B6803F00103002B40D07B685B68012B96
:1017CC0007D1474B1B6803F40033002B15D10123C1
:1017DC007FE07B685B68022B07D1414B1B6803F0F1
:1017EC000073002B09D1012373E03D4B1B6803F000
:1017FC000203002B01D101236BE0394B5B6823F012
:10180C0003027B685B68364913434B60FFF72AF988
:10181C00F8600AE0FFF726F90246FB68D31A41F29A
:10182C008832934201D9032353E02D4B5B6803F0BC
:10183C000C027B685B689B009A42EBD1274B1B68C0
:10184C0003F007033A689A4210D2244B1B6823F02A
:10185C00070222493B6813430B60204B1B6803F0C3
:10186C0007033A689A4201D0012332E07B681B6877
:10187C0003F00403002B08D0194B5B6823F4E062DF
:10188C007B68DB68164913434B607B681B6803F06D
:10189C000803002B09D0124B5B6823F460527B6861
:1018AC001B69DB000E4913434B6000F021F8024624
:1018BC000B4B5B681B0903F00F030A49CB5C22FA44
:1018CC0003F3094A1360094B1B681846FFF788F8A5
:1018DC00002318461037BD4680BD00BF00200240D3
:1018EC0000100240A827000800000020040000207F
:1018FC0080B487B000AF0023FB600023BB600023E3
:10190C007B6100237B6000233B611E4B5B68FB60AB
:10191C00FB6803F00C03042B02D0082B03D027E048
:10192C00194B3B6127E0FB689B0C03F00F03174A34
:10193C00D35C7B60FB6803F48033002B10D0114B1D
:10194C005B685B0C03F00103114AD35CBB607B68E2
:10195C000D4A03FB02F2BB68B2FBF3F37B6104E0BC
:10196C007B680C4A02FB03F37B617B693B6102E001
:10197C00054B3B6100BF3B6918461C37BD4680BC1C
:10198C00704700BF0010024000127A00C027000808
:10199C00D027000800093D0080B400AF024B1B6843
:1019AC001846BD4680BC70470000002080B500AFD3
:1019BC00FFF7F2FF0246054B5B681B0A03F00703B7
:1019CC000349CB5C22FA03F3184680BD0010024099
:1019DC00B827000880B500AFFFF7DEFF0246054BC5
:1019EC005B68DB0A03F007030349CB5C22FA03F3C1
:1019FC00184680BD00100240B827000880B485B09E
:101A0C0000AF78600A4B1B680A4AA2FB03235B0AEF
:101A1C007A6802FB03F3FB6000BFFB685A1EFA6096
:101A2C00002BF9D100BF00BF1437BD4680BC7047F6
:101A3C0000000020D34D621080B582B000AF7860FA
:101A4C007B68002B01D1012342E07B6893F8413085
:101A5C00DBB2002B06D17B68002283F8402078682B
:101A6C00FEF71CFD7B68242283F841207B681B68F1
:101A7C00DA687B681B6822F40052DA60786800F040
:101A8C001DF97B681B681A697B681B6822F49042FD
:101A9C001A617B681B685A697B681B6822F02A02F2
:101AAC005A617B681B68DA687B681B6842F40052D9
:101ABC00DA607B6800225A647B68202283F841201C
:101ACC007B68202283F842207B6800225A63002323
:101ADC0018460837BD4680BD80B58AB002AFF860A5
:101AEC00B9603B601346FB8000237B61FB6893F875
:101AFC004130DBB2202B6DD1BB68002B02D0FB88B0
:101B0C00002B01D1012366E0FB6800225A64FB68BC
:101B1C00212283F84120FEF7A5FF7861FB68FA8843
:101B2C009A84FB68FA88DA84FB689B68B3F5805F5B
:101B3C0008D1FB681B69002B04D10023FB61BB6837
:101B4C00BB6103E0BB68FB610023BB612AE03B681F
:101B5C0000937B6900228021F86800F040F803466E
:101B6C00002B01D0032336E0FB69002B0BD1BB69A2
:101B7C001B881A46FB681B68C2F308025A60BB69D3
:101B8C000233BB6107E0FB691A78FB681B685A607B
:101B9C00FB690133FB61FB68DB8C9BB2013B9AB2A6
:101BAC00FB68DA84FB68DB8C9BB2002BCFD13B68E3
:101BBC0000937B6900224021F86800F010F803467E
:101BCC00002B01D0032306E0FB68202283F8412080
:101BDC00002300E0022318462037BD4680BD80B5A7
:101BEC0090B000AFF860B9603B601346FB7150E0F9
:101BFC00BB6CB3F1FF3F4CD0BB6C002B07D0FEF796
:101C0C0031FF02463B68D31ABA6C9A4241D2FB6848
:101C1C001B680C33BB62BB6A53E8003F7B627B6A78
:101C2C0023F4D073FB63FB681B680C33FA6B7A6389
:101C3C003B63396B7A6B41E80023FB62FB6A002B38
:101C4C00E5D1FB681B6814337B617B6953E8003F6B
:101C5C003B613B6923F00103BB63FB681B681433D6
:101C6C00BA6B3A62FB61F9693A6A41E80023BB61DD
:101C7C00BB69002BE5D1FB68202283F84120FB686F
:101C8C00202283F84220FB68002283F840200323A3
:101C9C000FE0FB681B681A68BB681340BA689A426D
:101CAC000CBF01230023DBB21A46FB799A429FD06A
:101CBC00002318464037BD4680BD000080B584B077
:101CCC0000AF78607B681B681B6923F440517B680C
:101CDC00DA687B681B680A431A617B689A687B68C0
:101CEC001B691A437B685B691343BB607B681B6889
:101CFC00DB6823F4B05323F00C037A681268B968DC
:101D0C000B43D3607B681B685B6923F440717B6871
:101D1C009A697B681B680A435A617B681B682C4A6A
:101D2C00934203D1FFF756FEF86002E0FFF73EFE48
:101D3C00F860FA6813469B0013449A001A447B68B7
:101D4C005B689B00B2FBF3F3224AA2FB03235B0903
:101D5C001901FA6813469B0013449A001A447B68D5
:101D6C005B689B00B2FBF3F21A4BA3FB02035B090B
:101D7C00642000FB03F3D31A1B013233154AA2FB78
:101D8C0003235B0903F0F0031944FA6813469B0024
:101D9C0013449A001A447B685B689B00B2FBF3F215
:101DAC000C4BA3FB02035B09642000FB03F3D31A67
:101DBC001B013233074AA2FB03235B0903F00F021A
:101DCC007B681B680A449A6000BF1037BD4680BD13
:101DDC00003801401F85EB510EB46FF0004100B587
:101DEC009CB01DAB029006900791049108480949DC
:101DFC0053F8042B0591006802A9019300F092F9A5
:101E0C000022029B1A701CB05DF804EB03B0704703
:101E1C000C0000200802FFFF03460244934200D14D
:101E2C00704703F8011BF9E7014B1868704700BFB6
:101E3C000C00002070B500260C4D0D4C641BA4103A
:101E4C00A64209D100F078FC00260A4D0A4C641B0E
:101E5C00A410A64205D170BD55F8043B9847013635
:101E6C00EEE755F8043B98470136F2E710280008D6
:101E7C001028000810280008142800087047704724
:101E8C0038B50546002940D051F8043C0C1F002BF6
:101E9C00B8BFE41800F0DEF81C4A136833B963606D
:101EAC0014602846BDE8384000F0DAB8A34208D9DF
:101EBC00206821188B4201BF19685B6809182160E2
:101ECC00EDE71A465B680BB1A342FAD911685018BA
:101EDC00A0420BD120680144501883421160E0D11C
:101EEC0018685B68084410605360DAE702D90C2369
:101EFC002B60D6E7206821188B4201BF19685B68FC
:101F0C000918216063605460CBE738BD440300209E
:101F1C0070B50F4E0C463168054611B900F0AAFB9E
:101F2C0030602146284600F0A5FB431C03D14FF03E
:101F3C00FF34204670BDC41C24F00304A042F8D02A
:101F4C00211A284600F096FB0130F2D1EFE700BFD2
:101F5C00400300202DE9F843CD1C25F0030508357E
:101F6C000C2D38BF0C25002D064601DBA94204D9E7
:101F7C000C2333600020BDE8F883DFF8D48000F038
:101F8C0069F8D8F800301C4644BB29463046FFF7A8
:101F9C00BFFF431C044658D1D8F800402746002FF9
:101FAC0043D1002C4BD023683946304604EB03094F
:101FBC0000F060FB814542D1216830466D1A2946FC
:101FCC00FFF7A6FF01303AD023682B442360D8F8E2
:101FDC0000305A6862BBC8F800700FE02268521BD0
:101FEC0020D40B2A17D96119A342256018BF596058
:101FFC00636808BFC8F8001062514B60304600F0AF
:10200C002FF804F10B00231D20F00700C21A1CBF8F
:10201C001B1AA350AFE76268A3420CBFC8F800209C
:10202C005A60EBE723466468AEE73C467F68B6E748
:10203C001A465B68A342FBD100235360DEE70C23F6
:10204C003046336000F00CF894E70560D6E700BF2B
:10205C00440300200148FFF711BF00BF3C030020E0
:10206C000148FFF70CBF00BF3C0300202DE9F047EF
:10207C001F468E688246BE420C4690460B682DD891
:10208C00B1F90C2012F4906F26D06569096905EB43
:10209C004505A3EB010905EBD5757B1C4B446D1075
:1020AC009D4238BF1D46530527D52946FFF752FFE1
:1020BC00064660B34A46216900F0FAFAA38923F474
:1020CC00906343F08003A38126614E4426603E4614
:1020DC006561A5EB0905A560BE4200D93E463246B6
:1020EC004146206800F0ACFA0020A3689B1BA3605B
:1020FC00236833442360BDE8F0872A4600F0E6FAF3
:10210C0006460028E0D150462169FFF7B9FE0C23A2
:10211C00CAF80030A3894FF0FF3043F04003A3818D
:10212C00E9E700002DE9F04F98468B8907461B061E
:10213C000D4614469DB010D50B6973B94021FFF7BD
:10214C0009FF2860286130B90C233B604FF0FF3049
:10215C001DB0BDE8F08F40236B6100230993202351
:10216C008DF8293030234FF00109CDF80C80DFF8C1
:10217C0098818DF82A3023469A4613F8012B0AB120
:10218C00252AF9D1BAEB040B0BD05B462246294623
:10219C003846FFF76BFF013000F0A780099A5A44CC
:1021AC0009929AF80030002B00F09F8000234FF02A
:1021BC00FF32CDE905230AF1010A049307938DF848
:1021CC0053301A935446052214F8011B4E4800F064
:1021DC0061FA049AD8B9D00644BF20238DF8533045
:1021EC00110744BF2B238DF853309AF800302A2B5B
:1021FC0015D0544600204FF00A0C079A214611F8CE
:10220C00013B303B092B4BD9B0B1079214E0A0EB4A
:10221C00080309FA03F31343A2460493D2E7039B82
:10222C00191D1B680391002BBBBF5B4242F00202DD
:10223C0007930793B8BF049223782E2B0AD16378A7
:10224C002A2B32D1039B02341A1D1B68039243EADA
:10225C00E3730593DFF8B4A003225046217800F015
:10226C0019FA38B14022049BA0EB0A0082401343B8
:10227C000134049314F8011B062225488DF828100C
:10228C0000F008FA002836D0224B1BBB039B073307
:10229C0023F0070308330393099B334409936AE73C
:1022AC000C4601200CFB0232A8E700234FF00A0C6D
:1022BC00194601340593204610F8012B303A092AAF
:1022CC0003D9002BC6D00591C4E7044601230CFBAF
:1022DC000121F0E703AB00932A4638460E4B04A9C4
:1022EC00AFF30080421C0646D6D1AB895B063FF5A6
:1022FC002DAF09982CE703AB00932A463846064BC2
:10230C0004A900F07DF8EDE7D2270008D8270008D3
:10231C00DC27000800000000792000082DE9F047B8
:10232C00164698468A680B6907469342B8BF13460F
:10233C00336091F843200C46DDF820900AB101334C
:10234C0033602368990642BF3368023333602568D3
:10235C0015F0060506D104F1190AE36832689B1AD8
:10236C00AB422BDC94F843302268003B18BF0123AE
:10237C00920630D44146384604F14302C847013036
:10238C0023D02368226903F00603042B14BF002515
:10239C0033684FF0000608BFE56804F11A0408BF63
:1023AC00ED1A54F8123C08BF25EAE5759342C4BFF8
:1023BC009B1AED18B5421AD1002008E001235246B1
:1023CC0041463846C847013003D14FF0FF30BDE8D5
:1023DC00F0870135C1E73020E11881F843005A1C21
:1023EC0094F845102244023382F84310C2E70123CB
:1023FC00224641463846C8470130E6D00136D9E777
:10240C002DE9FF470F7E9146782F80460C469A4661
:10241C000C9E01F1430207D8622F0AD8002F00F05E
:10242C00D380582F00F0BA8004F1420684F8427031
:10243C003AE0A7F16303152BF6D801A151F823F06C
:10244C00A5240008B9240008352400083524000808
:10245C003524000835240008B92400083524000868
:10246C00352400083524000835240008BB25000855
:10247C00E3240008752500083524000835240008DD
:10248C00DD25000835240008E32400083524000865
:10249C00352400087D25000833681A1D1B6832603E
:1024AC0004F1420684F8423001239EE03368206830
:1024BC00191D3160060601D51D6803E04506FBD5E4
:1024CC00B3F90050002D03DA2D236D4284F843300C
:1024DC000A23594811E021683368080653F8045B55
:1024EC0002D4490648BFADB26F2F336014BF0A2324
:1024FC0008235148002184F843106668002EA8BFB9
:10250C002168A660A4BF21F0040121600DB9002E42
:10251C004BD01646B5FBF3F103FB1157C75D06F81C
:10252C00017D2F46BB420D46F4D9082B0BD12368F5
:10253C00DF0708D5236961689942DEBF302306F8AE
:10254C00013C06F1FF36921B22614B462146404668
:10255C00CDF800A003AAFFF7E1FE01304AD14FF0FD
:10256C00FF3004B0BDE8F087236843F020032360FC
:10257C007827324884F84570236831681F0651F873
:10258C00045B02D45F0648BFADB23160D90744BFCB
:10259C0043F0200323601DB11023ABE72648E9E785
:1025AC00236823F020032360F6E71646BDE7336863
:1025BC002568181D616930602E061B6801D51960ED
:1025CC0002E06806FBD51980002316462361BCE7A0
:1025DC00336800211A1D32601E686268304600F0B4
:1025EC0059F808B1801B606063682361002384F88C
:1025FC004330AAE73246494640462369D04701306A
:10260C00ADD023689B0713D4E068039B9842B8BFF6
:10261C001846A6E70123324649464046D0470130CA
:10262C009DD00135E36803995B1AAB42F2DCEBE712
:10263C00002504F11906F5E7E3270008F427000844
:10264C00884210B501EB020402D98442234607D814
:10265C00431EA14208D011F8012B03F8012FF8E713
:10266C00014602448A4200D110BD13F8014D02F814
:10267C00014DF7E738B50023054D044608462B609D
:10268C00FDF784FF431C02D12B6803B1236038BDD6
:10269C0038030020034610B5C9B2024493421846D1
:1026AC0001D1002003E0047801338C42F6D110BD37
:1026BC000A44914200F1FF3300D1704710B511F874
:1026CC00014B914203F8014FF9D110BD2DE9F041B6
:1026DC00804615460C4621B91146BDE8F041FFF77E
:1026EC0039BC2AB9FFF7CCFB00242046BDE8F081A9
:1026FC0000F01AF88542064602D8B5EB500FF4D814
:10270C0029464046FFF726FC07460028ECD0B54288
:10271C002A46214628BF3246FFF7CAFF21464046CB
:10272C00FFF7AEFB3C46E0E751F8043C181F002BCA
:10273C00BCBF0B58C0187047F8B500BFF8BC08BC3C
:10274C009E467047F8B500BFF8BC08BC9E46704763
:10275C00636C6F636B206F6B0A0D0000636C6F63AF
:10276C006B206973206E6F74206F6B0A0D00000074
:10277C00253032643A253032643A253032642044B4
:10278C006179202530326420253032642F25303297
:10279C00642F253034640A0D000000000000000096
:1027AC0000000000010203040607080900000000F5
:1027BC000102030402030405060708090A0B0C0DA9
:1027CC000E0F10100102232D302B2000686C4C00D2
:1027DC006566674546470030313233343536373815
:1027EC003941424344454600303132333435363773
:0C27FC003839616263646566000000000B
:0828080044D9FF7F010000002C
:04281000310100088A
:042814000D010008AA
:102818000024F40010000000010000001000002057
:10282800000000000002002068020020D002002002
:102838000000000000000000000000000000000090
:102848000000000000000000000000000000000080
:102858000000000000000000000000000000000070
:0C28680000000000000000000000000064
:0400000508000611D8
:00000001FF
